{
  "_format": "hh-sol-artifact-1",
  "contractName": "MyEpicNFT",
  "sourceName": "contracts/MyEpicNFT.sol",
  "abi": [
    {
      "inputs": [],
      "stateMutability": "nonpayable",
      "type": "constructor"
    },
    {
      "anonymous": false,
      "inputs": [
        {
          "indexed": true,
          "internalType": "address",
          "name": "owner",
          "type": "address"
        },
        {
          "indexed": true,
          "internalType": "address",
          "name": "approved",
          "type": "address"
        },
        {
          "indexed": true,
          "internalType": "uint256",
          "name": "tokenId",
          "type": "uint256"
        }
      ],
      "name": "Approval",
      "type": "event"
    },
    {
      "anonymous": false,
      "inputs": [
        {
          "indexed": true,
          "internalType": "address",
          "name": "owner",
          "type": "address"
        },
        {
          "indexed": true,
          "internalType": "address",
          "name": "operator",
          "type": "address"
        },
        {
          "indexed": false,
          "internalType": "bool",
          "name": "approved",
          "type": "bool"
        }
      ],
      "name": "ApprovalForAll",
      "type": "event"
    },
    {
      "anonymous": false,
      "inputs": [
        {
          "indexed": false,
          "internalType": "address",
          "name": "sender",
          "type": "address"
        },
        {
          "indexed": false,
          "internalType": "uint256",
          "name": "tokenId",
          "type": "uint256"
        }
      ],
      "name": "NewEpicNFTMinted",
      "type": "event"
    },
    {
      "anonymous": false,
      "inputs": [
        {
          "indexed": true,
          "internalType": "address",
          "name": "from",
          "type": "address"
        },
        {
          "indexed": true,
          "internalType": "address",
          "name": "to",
          "type": "address"
        },
        {
          "indexed": true,
          "internalType": "uint256",
          "name": "tokenId",
          "type": "uint256"
        }
      ],
      "name": "Transfer",
      "type": "event"
    },
    {
      "inputs": [
        {
          "internalType": "address",
          "name": "to",
          "type": "address"
        },
        {
          "internalType": "uint256",
          "name": "tokenId",
          "type": "uint256"
        }
      ],
      "name": "approve",
      "outputs": [],
      "stateMutability": "nonpayable",
      "type": "function"
    },
    {
      "inputs": [
        {
          "internalType": "address",
          "name": "owner",
          "type": "address"
        }
      ],
      "name": "balanceOf",
      "outputs": [
        {
          "internalType": "uint256",
          "name": "",
          "type": "uint256"
        }
      ],
      "stateMutability": "view",
      "type": "function"
    },
    {
      "inputs": [],
      "name": "countToken",
      "outputs": [
        {
          "internalType": "uint256",
          "name": "",
          "type": "uint256"
        }
      ],
      "stateMutability": "view",
      "type": "function"
    },
    {
      "inputs": [
        {
          "internalType": "uint256",
          "name": "tokenId",
          "type": "uint256"
        }
      ],
      "name": "getApproved",
      "outputs": [
        {
          "internalType": "address",
          "name": "",
          "type": "address"
        }
      ],
      "stateMutability": "view",
      "type": "function"
    },
    {
      "inputs": [
        {
          "internalType": "address",
          "name": "owner",
          "type": "address"
        },
        {
          "internalType": "address",
          "name": "operator",
          "type": "address"
        }
      ],
      "name": "isApprovedForAll",
      "outputs": [
        {
          "internalType": "bool",
          "name": "",
          "type": "bool"
        }
      ],
      "stateMutability": "view",
      "type": "function"
    },
    {
      "inputs": [],
      "name": "makeAnEpicNFT",
      "outputs": [],
      "stateMutability": "nonpayable",
      "type": "function"
    },
    {
      "inputs": [],
      "name": "name",
      "outputs": [
        {
          "internalType": "string",
          "name": "",
          "type": "string"
        }
      ],
      "stateMutability": "view",
      "type": "function"
    },
    {
      "inputs": [
        {
          "internalType": "uint256",
          "name": "tokenId",
          "type": "uint256"
        }
      ],
      "name": "ownerOf",
      "outputs": [
        {
          "internalType": "address",
          "name": "",
          "type": "address"
        }
      ],
      "stateMutability": "view",
      "type": "function"
    },
    {
      "inputs": [
        {
          "internalType": "uint256",
          "name": "tokenId",
          "type": "uint256"
        }
      ],
      "name": "pickRandomFirstWord",
      "outputs": [
        {
          "internalType": "string",
          "name": "",
          "type": "string"
        }
      ],
      "stateMutability": "view",
      "type": "function"
    },
    {
      "inputs": [
        {
          "internalType": "uint256",
          "name": "tokenId",
          "type": "uint256"
        }
      ],
      "name": "pickRandomSecondWord",
      "outputs": [
        {
          "internalType": "string",
          "name": "",
          "type": "string"
        }
      ],
      "stateMutability": "view",
      "type": "function"
    },
    {
      "inputs": [
        {
          "internalType": "uint256",
          "name": "tokenId",
          "type": "uint256"
        }
      ],
      "name": "pickRandomThirdWord",
      "outputs": [
        {
          "internalType": "string",
          "name": "",
          "type": "string"
        }
      ],
      "stateMutability": "view",
      "type": "function"
    },
    {
      "inputs": [
        {
          "internalType": "address",
          "name": "from",
          "type": "address"
        },
        {
          "internalType": "address",
          "name": "to",
          "type": "address"
        },
        {
          "internalType": "uint256",
          "name": "tokenId",
          "type": "uint256"
        }
      ],
      "name": "safeTransferFrom",
      "outputs": [],
      "stateMutability": "nonpayable",
      "type": "function"
    },
    {
      "inputs": [
        {
          "internalType": "address",
          "name": "from",
          "type": "address"
        },
        {
          "internalType": "address",
          "name": "to",
          "type": "address"
        },
        {
          "internalType": "uint256",
          "name": "tokenId",
          "type": "uint256"
        },
        {
          "internalType": "bytes",
          "name": "data",
          "type": "bytes"
        }
      ],
      "name": "safeTransferFrom",
      "outputs": [],
      "stateMutability": "nonpayable",
      "type": "function"
    },
    {
      "inputs": [
        {
          "internalType": "address",
          "name": "operator",
          "type": "address"
        },
        {
          "internalType": "bool",
          "name": "approved",
          "type": "bool"
        }
      ],
      "name": "setApprovalForAll",
      "outputs": [],
      "stateMutability": "nonpayable",
      "type": "function"
    },
    {
      "inputs": [
        {
          "internalType": "bytes4",
          "name": "interfaceId",
          "type": "bytes4"
        }
      ],
      "name": "supportsInterface",
      "outputs": [
        {
          "internalType": "bool",
          "name": "",
          "type": "bool"
        }
      ],
      "stateMutability": "view",
      "type": "function"
    },
    {
      "inputs": [],
      "name": "symbol",
      "outputs": [
        {
          "internalType": "string",
          "name": "",
          "type": "string"
        }
      ],
      "stateMutability": "view",
      "type": "function"
    },
    {
      "inputs": [
        {
          "internalType": "uint256",
          "name": "tokenId",
          "type": "uint256"
        }
      ],
      "name": "tokenURI",
      "outputs": [
        {
          "internalType": "string",
          "name": "",
          "type": "string"
        }
      ],
      "stateMutability": "view",
      "type": "function"
    },
    {
      "inputs": [
        {
          "internalType": "address",
          "name": "from",
          "type": "address"
        },
        {
          "internalType": "address",
          "name": "to",
          "type": "address"
        },
        {
          "internalType": "uint256",
          "name": "tokenId",
          "type": "uint256"
        }
      ],
      "name": "transferFrom",
      "outputs": [],
      "stateMutability": "nonpayable",
      "type": "function"
    }
  ],
  "bytecode": "0x608060405260405180610160016040528061012f8152602001620041c761012f913960089080519060200190620000389291906200067e565b506040518060c001604052806040518060400160405280600481526020017f417265200000000000000000000000000000000000000000000000000000000081525081526020016040518060400160405280600481526020017f576879200000000000000000000000000000000000000000000000000000000081525081526020016040518060400160405280600381526020017f4f7220000000000000000000000000000000000000000000000000000000000081525081526020016040518060400160405280600581526020017f4a7573742000000000000000000000000000000000000000000000000000000081525081526020016040518060400160405280600381526020017f4f6820000000000000000000000000000000000000000000000000000000000081525081526020016040518060400160405280600581526020017f2a2a2a2a200000000000000000000000000000000000000000000000000000008152508152506009906006620001b69291906200070f565b506040518060c001604052806040518060400160405280600481526020017f796f75200000000000000000000000000000000000000000000000000000000081525081526020016040518060400160405280600381526020017f736f20000000000000000000000000000000000000000000000000000000000081525081526020016040518060400160405280600781526020017f73686f756c64200000000000000000000000000000000000000000000000000081525081526020016040518060400160405280600381526020017f646f20000000000000000000000000000000000000000000000000000000000081525081526020016040518060400160405280600381526020017f6d7920000000000000000000000000000000000000000000000000000000000081525081526020016040518060400160405280600581526020017f2a2a2a2a20000000000000000000000000000000000000000000000000000000815250815250600a906006620003349291906200070f565b506040518060c001604052806040518060400160405280600681526020017f68617070793f000000000000000000000000000000000000000000000000000081525081526020016040518060400160405280600881526020017f736572696f75733f00000000000000000000000000000000000000000000000081525081526020016040518060400160405280600281526020017f493f00000000000000000000000000000000000000000000000000000000000081525081526020016040518060400160405280600381526020017f697421000000000000000000000000000000000000000000000000000000000081525081526020016040518060400160405280600581526020017f676f64212000000000000000000000000000000000000000000000000000000081525081526020016040518060400160405280600481526020017f2a2a2a2a00000000000000000000000000000000000000000000000000000000815250815250600b906006620004b29291906200070f565b50348015620004c057600080fd5b506040518060400160405280600981526020017f5371756172654e465400000000000000000000000000000000000000000000008152506040518060400160405280600681526020017f53515541524500000000000000000000000000000000000000000000000000008152508160009080519060200190620005459291906200067e565b5080600190805190602001906200055e9291906200067e565b505050620005ac6040518060400160405280601881526020017f54686973206973206d79204e465420636f6e74726163742e0000000000000000815250620005b260201b6200112d1760201c565b62000930565b6200065281604051602401620005c99190620008a7565b6040516020818303038152906040527f41304fac000000000000000000000000000000000000000000000000000000007bffffffffffffffffffffffffffffffffffffffffffffffffffffffff19166020820180517bffffffffffffffffffffffffffffffffffffffffffffffffffffffff83818316178352505050506200065560201b60201c565b50565b60008151905060006a636f6e736f6c652e6c6f679050602083016000808483855afa5050505050565b8280546200068c90620008fa565b90600052602060002090601f016020900481019282620006b05760008555620006fc565b82601f10620006cb57805160ff1916838001178555620006fc565b82800160010185558215620006fc579182015b82811115620006fb578251825591602001919060010190620006de565b5b5090506200070b919062000776565b5090565b82805482825590600052602060002090810192821562000763579160200282015b8281111562000762578251829080519060200190620007519291906200067e565b509160200191906001019062000730565b5b50905062000772919062000795565b5090565b5b808211156200079157600081600090555060010162000777565b5090565b5b80821115620007b95760008181620007af9190620007bd565b5060010162000796565b5090565b508054620007cb90620008fa565b6000825580601f10620007df575062000800565b601f016020900490600052602060002090810190620007ff919062000776565b5b50565b600081519050919050565b600082825260208201905092915050565b60005b838110156200083f57808201518184015260208101905062000822565b838111156200084f576000848401525b50505050565b6000601f19601f8301169050919050565b6000620008738262000803565b6200087f81856200080e565b9350620008918185602086016200081f565b6200089c8162000855565b840191505092915050565b60006020820190508181036000830152620008c3818462000866565b905092915050565b7f4e487b7100000000000000000000000000000000000000000000000000000000600052602260045260246000fd5b600060028204905060018216806200091357607f821691505b602082108114156200092a5762000929620008cb565b5b50919050565b61388780620009406000396000f3fe608060405234801561001057600080fd5b50600436106101165760003560e01c806395d89b41116100a2578063c575757a11610071578063c575757a14610303578063c87b56dd14610333578063de9d132f14610363578063e7a81c551461036d578063e985e9c51461038b57610116565b806395d89b411461027d578063a22cb4651461029b578063b187301f146102b7578063b88d4fde146102e757610116565b806323b872dd116100e957806323b872dd146101b55780632de38d68146101d157806342842e0e146102015780636352211e1461021d57806370a082311461024d57610116565b806301ffc9a71461011b57806306fdde031461014b578063081812fc14610169578063095ea7b314610199575b600080fd5b6101356004803603810190610130919061233a565b6103bb565b6040516101429190612382565b60405180910390f35b61015361049d565b6040516101609190612436565b60405180910390f35b610183600480360381019061017e919061248e565b61052f565b60405161019091906124fc565b60405180910390f35b6101b360048036038101906101ae9190612543565b610575565b005b6101cf60048036038101906101ca9190612583565b61068d565b005b6101eb60048036038101906101e6919061248e565b6106ed565b6040516101f89190612436565b60405180910390f35b61021b60048036038101906102169190612583565b610863565b005b6102376004803603810190610232919061248e565b610883565b60405161024491906124fc565b60405180910390f35b610267600480360381019061026291906125d6565b610935565b6040516102749190612612565b60405180910390f35b6102856109ed565b6040516102929190612436565b60405180910390f35b6102b560048036038101906102b09190612659565b610a7f565b005b6102d160048036038101906102cc919061248e565b610a95565b6040516102de9190612436565b60405180910390f35b61030160048036038101906102fc91906127ce565b610b8d565b005b61031d6004803603810190610318919061248e565b610bef565b60405161032a9190612436565b60405180910390f35b61034d6004803603810190610348919061248e565b610ce7565b60405161035a9190612436565b60405180910390f35b61036b610dfa565b005b610375611088565b6040516103829190612612565b60405180910390f35b6103a560048036038101906103a09190612851565b611099565b6040516103b29190612382565b60405180910390f35b60007f80ac58cd000000000000000000000000000000000000000000000000000000007bffffffffffffffffffffffffffffffffffffffffffffffffffffffff1916827bffffffffffffffffffffffffffffffffffffffffffffffffffffffff1916148061048657507f5b5e139f000000000000000000000000000000000000000000000000000000007bffffffffffffffffffffffffffffffffffffffffffffffffffffffff1916827bffffffffffffffffffffffffffffffffffffffffffffffffffffffff1916145b806104965750610495826111c6565b5b9050919050565b6060600080546104ac906128c0565b80601f01602080910402602001604051908101604052809291908181526020018280546104d8906128c0565b80156105255780601f106104fa57610100808354040283529160200191610525565b820191906000526020600020905b81548152906001019060200180831161050857829003601f168201915b5050505050905090565b600061053a82611230565b6004600083815260200190815260200160002060009054906101000a900473ffffffffffffffffffffffffffffffffffffffff169050919050565b600061058082610883565b90508073ffffffffffffffffffffffffffffffffffffffff168373ffffffffffffffffffffffffffffffffffffffff1614156105f1576040517f08c379a00000000000000000000000000000000000000000000000000000000081526004016105e890612964565b60405180910390fd5b8073ffffffffffffffffffffffffffffffffffffffff1661061061127b565b73ffffffffffffffffffffffffffffffffffffffff16148061063f575061063e8161063961127b565b611099565b5b61067e576040517f08c379a0000000000000000000000000000000000000000000000000000000008152600401610675906129f6565b60405180910390fd5b6106888383611283565b505050565b61069e61069861127b565b8261133c565b6106dd576040517f08c379a00000000000000000000000000000000000000000000000000000000081526004016106d490612a88565b60405180910390fd5b6106e88383836113d1565b505050565b606060006107216106fd84611638565b60405160200161070d9190612b30565b604051602081830303815290604052611799565b90506107626040518060400160405280600b81526020017f72616e6420736565643a20000000000000000000000000000000000000000000815250826117cc565b600980549050816107739190612b81565b90506107b46040518060400160405280601181526020017f72616e6420666972737420776f72643a20000000000000000000000000000000815250826117cc565b600981815481106107c8576107c7612bb2565b5b9060005260206000200180546107dd906128c0565b80601f0160208091040260200160405190810160405280929190818152602001828054610809906128c0565b80156108565780601f1061082b57610100808354040283529160200191610856565b820191906000526020600020905b81548152906001019060200180831161083957829003601f168201915b5050505050915050919050565b61087e83838360405180602001604052806000815250610b8d565b505050565b6000806002600084815260200190815260200160002060009054906101000a900473ffffffffffffffffffffffffffffffffffffffff169050600073ffffffffffffffffffffffffffffffffffffffff168173ffffffffffffffffffffffffffffffffffffffff16141561092c576040517f08c379a000000000000000000000000000000000000000000000000000000000815260040161092390612c2d565b60405180910390fd5b80915050919050565b60008073ffffffffffffffffffffffffffffffffffffffff168273ffffffffffffffffffffffffffffffffffffffff1614156109a6576040517f08c379a000000000000000000000000000000000000000000000000000000000815260040161099d90612cbf565b60405180910390fd5b600360008373ffffffffffffffffffffffffffffffffffffffff1673ffffffffffffffffffffffffffffffffffffffff168152602001908152602001600020549050919050565b6060600180546109fc906128c0565b80601f0160208091040260200160405190810160405280929190818152602001828054610a28906128c0565b8015610a755780601f10610a4a57610100808354040283529160200191610a75565b820191906000526020600020905b815481529060010190602001808311610a5857829003601f168201915b5050505050905090565b610a91610a8a61127b565b8383611868565b5050565b60606000610ac9610aa584611638565b604051602001610ab59190612d2b565b604051602081830303815290604052611799565b9050600a8054905081610adc9190612b81565b9050600a8181548110610af257610af1612bb2565b5b906000526020600020018054610b07906128c0565b80601f0160208091040260200160405190810160405280929190818152602001828054610b33906128c0565b8015610b805780601f10610b5557610100808354040283529160200191610b80565b820191906000526020600020905b815481529060010190602001808311610b6357829003601f168201915b5050505050915050919050565b610b9e610b9861127b565b8361133c565b610bdd576040517f08c379a0000000000000000000000000000000000000000000000000000000008152600401610bd490612a88565b60405180910390fd5b610be9848484846119d5565b50505050565b60606000610c23610bff84611638565b604051602001610c0f9190612d99565b604051602081830303815290604052611799565b9050600b8054905081610c369190612b81565b9050600b8181548110610c4c57610c4b612bb2565b5b906000526020600020018054610c61906128c0565b80601f0160208091040260200160405190810160405280929190818152602001828054610c8d906128c0565b8015610cda5780601f10610caf57610100808354040283529160200191610cda565b820191906000526020600020905b815481529060010190602001808311610cbd57829003601f168201915b5050505050915050919050565b6060610cf282611230565b6000600660008481526020019081526020016000208054610d12906128c0565b80601f0160208091040260200160405190810160405280929190818152602001828054610d3e906128c0565b8015610d8b5780601f10610d6057610100808354040283529160200191610d8b565b820191906000526020600020905b815481529060010190602001808311610d6e57829003601f168201915b505050505090506000610d9c611a31565b9050600081511415610db2578192505050610df5565b600082511115610de7578082604051602001610dcf929190612dbb565b60405160208183030381529060405292505050610df5565b610df084611a48565b925050505b919050565b60006005905080610e0b6007611ab0565b10610e165750611086565b6000610e226007611ab0565b90506000610e2f826106ed565b90506000610e3c83610a95565b90506000610e4984610bef565b90506000838383604051602001610e6293929190612ddf565b604051602081830303815290604052905060006008858585604051602001610e8d9493929190612ef0565b6040516020818303038152906040529050610edc6040518060400160405280601581526020017f0a2d2d2d2d2d2d2d2d2d2d2d2d2d2d2d2d2d2d2d2d000000000000000000000081525061112d565b610ee58161112d565b610f236040518060400160405280601581526020017f2d2d2d2d2d2d2d2d2d2d2d2d2d2d2d2d2d2d2d2d0a000000000000000000000081525061112d565b6000610f5783610f3284611abe565b604051602001610f4392919061308f565b604051602081830303815290604052611abe565b9050600081604051602001610f6c9190613120565b6040516020818303038152906040529050610fbb6040518060400160405280601581526020017f0a2d2d2d2d2d20546f6b656e20555249202d2d2d2d000000000000000000000081525061112d565b610fc48161112d565b6110026040518060400160405280601581526020017f2d2d2d2d2d2d2d2d2d2d2d2d2d2d2d2d2d2d2d2d0a000000000000000000000081525061112d565b61100c3389611c56565b6110168882611c74565b6110396040518060600160405280602581526020016137ed602591398933611ce8565b6110436007611d87565b7febb98688741ffa4c7589bf325de30cf7becb63de567842e1ccdb6cb949fdc82c3389604051611074929190613142565b60405180910390a15050505050505050505b565b60006110946007611ab0565b905090565b6000600560008473ffffffffffffffffffffffffffffffffffffffff1673ffffffffffffffffffffffffffffffffffffffff16815260200190815260200160002060008373ffffffffffffffffffffffffffffffffffffffff1673ffffffffffffffffffffffffffffffffffffffff16815260200190815260200160002060009054906101000a900460ff16905092915050565b6111c3816040516024016111419190612436565b6040516020818303038152906040527f41304fac000000000000000000000000000000000000000000000000000000007bffffffffffffffffffffffffffffffffffffffffffffffffffffffff19166020820180517bffffffffffffffffffffffffffffffffffffffffffffffffffffffff8381831617835250505050611d9d565b50565b60007f01ffc9a7000000000000000000000000000000000000000000000000000000007bffffffffffffffffffffffffffffffffffffffffffffffffffffffff1916827bffffffffffffffffffffffffffffffffffffffffffffffffffffffff1916149050919050565b61123981611dc6565b611278576040517f08c379a000000000000000000000000000000000000000000000000000000000815260040161126f90612c2d565b60405180910390fd5b50565b600033905090565b816004600083815260200190815260200160002060006101000a81548173ffffffffffffffffffffffffffffffffffffffff021916908373ffffffffffffffffffffffffffffffffffffffff160217905550808273ffffffffffffffffffffffffffffffffffffffff166112f683610883565b73ffffffffffffffffffffffffffffffffffffffff167f8c5be1e5ebec7d5bd14f71427d1e84f3dd0314c0f7b2291e5b200ac8c7c3b92560405160405180910390a45050565b60008061134883610883565b90508073ffffffffffffffffffffffffffffffffffffffff168473ffffffffffffffffffffffffffffffffffffffff16148061138a57506113898185611099565b5b806113c857508373ffffffffffffffffffffffffffffffffffffffff166113b08461052f565b73ffffffffffffffffffffffffffffffffffffffff16145b91505092915050565b8273ffffffffffffffffffffffffffffffffffffffff166113f182610883565b73ffffffffffffffffffffffffffffffffffffffff1614611447576040517f08c379a000000000000000000000000000000000000000000000000000000000815260040161143e906131dd565b60405180910390fd5b600073ffffffffffffffffffffffffffffffffffffffff168273ffffffffffffffffffffffffffffffffffffffff1614156114b7576040517f08c379a00000000000000000000000000000000000000000000000000000000081526004016114ae9061326f565b60405180910390fd5b6114c2838383611e32565b6114cd600082611283565b6001600360008573ffffffffffffffffffffffffffffffffffffffff1673ffffffffffffffffffffffffffffffffffffffff168152602001908152602001600020600082825461151d91906132be565b925050819055506001600360008473ffffffffffffffffffffffffffffffffffffffff1673ffffffffffffffffffffffffffffffffffffffff168152602001908152602001600020600082825461157491906132f2565b92505081905550816002600083815260200190815260200160002060006101000a81548173ffffffffffffffffffffffffffffffffffffffff021916908373ffffffffffffffffffffffffffffffffffffffff160217905550808273ffffffffffffffffffffffffffffffffffffffff168473ffffffffffffffffffffffffffffffffffffffff167fddf252ad1be2c89b69c2b068fc378daa952ba7f163c4a11628f55a4df523b3ef60405160405180910390a4611633838383611e37565b505050565b60606000821415611680576040518060400160405280600181526020017f30000000000000000000000000000000000000000000000000000000000000008152509050611794565b600082905060005b600082146116b257808061169b90613348565b915050600a826116ab9190613391565b9150611688565b60008167ffffffffffffffff8111156116ce576116cd6126a3565b5b6040519080825280601f01601f1916602001820160405280156117005781602001600182028036833780820191505090505b5090505b6000851461178d5760018261171991906132be565b9150600a856117289190612b81565b603061173491906132f2565b60f81b81838151811061174a57611749612bb2565b5b60200101907effffffffffffffffffffffffffffffffffffffffffffffffffffffffffffff1916908160001a905350600a856117869190613391565b9450611704565b8093505050505b919050565b6000816040516020016117ac91906133c2565b6040516020818303038152906040528051906020012060001c9050919050565b61186482826040516024016117e29291906133d9565b6040516020818303038152906040527fb60e72cc000000000000000000000000000000000000000000000000000000007bffffffffffffffffffffffffffffffffffffffffffffffffffffffff19166020820180517bffffffffffffffffffffffffffffffffffffffffffffffffffffffff8381831617835250505050611d9d565b5050565b8173ffffffffffffffffffffffffffffffffffffffff168373ffffffffffffffffffffffffffffffffffffffff1614156118d7576040517f08c379a00000000000000000000000000000000000000000000000000000000081526004016118ce90613455565b60405180910390fd5b80600560008573ffffffffffffffffffffffffffffffffffffffff1673ffffffffffffffffffffffffffffffffffffffff16815260200190815260200160002060008473ffffffffffffffffffffffffffffffffffffffff1673ffffffffffffffffffffffffffffffffffffffff16815260200190815260200160002060006101000a81548160ff0219169083151502179055508173ffffffffffffffffffffffffffffffffffffffff168373ffffffffffffffffffffffffffffffffffffffff167f17307eab39ab6107e8899845ad3d59bd9653f200f220920489ca2b5937696c31836040516119c89190612382565b60405180910390a3505050565b6119e08484846113d1565b6119ec84848484611e3c565b611a2b576040517f08c379a0000000000000000000000000000000000000000000000000000000008152600401611a22906134e7565b60405180910390fd5b50505050565b606060405180602001604052806000815250905090565b6060611a5382611230565b6000611a5d611a31565b90506000815111611a7d5760405180602001604052806000815250611aa8565b80611a8784611638565b604051602001611a98929190612dbb565b6040516020818303038152906040525b915050919050565b600081600001549050919050565b60606000825190506000811415611ae75760405180602001604052806000815250915050611c51565b60006003600283611af891906132f2565b611b029190613391565b6004611b0e9190613507565b90506000602082611b1f91906132f2565b67ffffffffffffffff811115611b3857611b376126a3565b5b6040519080825280601f01601f191660200182016040528015611b6a5781602001600182028036833780820191505090505b5090506000604051806060016040528060408152602001613812604091399050600181016020830160005b86811015611c0e5760038101905062ffffff818a015116603f8160121c168401518060081b905060ff603f83600c1c1686015116810190508060081b905060ff603f8360061c1686015116810190508060081b905060ff603f831686015116810190508060e01b90508084526004840193505050611b95565b506003860660018114611c285760028114611c3857611c43565b613d3d60f01b6002830352611c43565b603d60f81b60018303525b508484525050819450505050505b919050565b611c70828260405180602001604052806000815250611fd3565b5050565b611c7d82611dc6565b611cbc576040517f08c379a0000000000000000000000000000000000000000000000000000000008152600401611cb3906135d3565b60405180910390fd5b80600660008481526020019081526020016000209080519060200190611ce392919061222b565b505050565b611d82838383604051602401611d00939291906135f3565b6040516020818303038152906040527f1c7ec448000000000000000000000000000000000000000000000000000000007bffffffffffffffffffffffffffffffffffffffffffffffffffffffff19166020820180517bffffffffffffffffffffffffffffffffffffffffffffffffffffffff8381831617835250505050611d9d565b505050565b6001816000016000828254019250508190555050565b60008151905060006a636f6e736f6c652e6c6f679050602083016000808483855afa5050505050565b60008073ffffffffffffffffffffffffffffffffffffffff166002600084815260200190815260200160002060009054906101000a900473ffffffffffffffffffffffffffffffffffffffff1673ffffffffffffffffffffffffffffffffffffffff1614159050919050565b505050565b505050565b6000611e5d8473ffffffffffffffffffffffffffffffffffffffff1661202e565b15611fc6578373ffffffffffffffffffffffffffffffffffffffff1663150b7a02611e8661127b565b8786866040518563ffffffff1660e01b8152600401611ea89493929190613686565b602060405180830381600087803b158015611ec257600080fd5b505af1925050508015611ef357506040513d601f19601f82011682018060405250810190611ef091906136e7565b60015b611f76573d8060008114611f23576040519150601f19603f3d011682016040523d82523d6000602084013e611f28565b606091505b50600081511415611f6e576040517f08c379a0000000000000000000000000000000000000000000000000000000008152600401611f65906134e7565b60405180910390fd5b805181602001fd5b63150b7a0260e01b7bffffffffffffffffffffffffffffffffffffffffffffffffffffffff1916817bffffffffffffffffffffffffffffffffffffffffffffffffffffffff191614915050611fcb565b600190505b949350505050565b611fdd8383612051565b611fea6000848484611e3c565b612029576040517f08c379a0000000000000000000000000000000000000000000000000000000008152600401612020906134e7565b60405180910390fd5b505050565b6000808273ffffffffffffffffffffffffffffffffffffffff163b119050919050565b600073ffffffffffffffffffffffffffffffffffffffff168273ffffffffffffffffffffffffffffffffffffffff1614156120c1576040517f08c379a00000000000000000000000000000000000000000000000000000000081526004016120b890613760565b60405180910390fd5b6120ca81611dc6565b1561210a576040517f08c379a0000000000000000000000000000000000000000000000000000000008152600401612101906137cc565b60405180910390fd5b61211660008383611e32565b6001600360008473ffffffffffffffffffffffffffffffffffffffff1673ffffffffffffffffffffffffffffffffffffffff168152602001908152602001600020600082825461216691906132f2565b92505081905550816002600083815260200190815260200160002060006101000a81548173ffffffffffffffffffffffffffffffffffffffff021916908373ffffffffffffffffffffffffffffffffffffffff160217905550808273ffffffffffffffffffffffffffffffffffffffff16600073ffffffffffffffffffffffffffffffffffffffff167fddf252ad1be2c89b69c2b068fc378daa952ba7f163c4a11628f55a4df523b3ef60405160405180910390a461222760008383611e37565b5050565b828054612237906128c0565b90600052602060002090601f01602090048101928261225957600085556122a0565b82601f1061227257805160ff19168380011785556122a0565b828001600101855582156122a0579182015b8281111561229f578251825591602001919060010190612284565b5b5090506122ad91906122b1565b5090565b5b808211156122ca5760008160009055506001016122b2565b5090565b6000604051905090565b600080fd5b600080fd5b60007fffffffff0000000000000000000000000000000000000000000000000000000082169050919050565b612317816122e2565b811461232257600080fd5b50565b6000813590506123348161230e565b92915050565b6000602082840312156123505761234f6122d8565b5b600061235e84828501612325565b91505092915050565b60008115159050919050565b61237c81612367565b82525050565b60006020820190506123976000830184612373565b92915050565b600081519050919050565b600082825260208201905092915050565b60005b838110156123d75780820151818401526020810190506123bc565b838111156123e6576000848401525b50505050565b6000601f19601f8301169050919050565b60006124088261239d565b61241281856123a8565b93506124228185602086016123b9565b61242b816123ec565b840191505092915050565b6000602082019050818103600083015261245081846123fd565b905092915050565b6000819050919050565b61246b81612458565b811461247657600080fd5b50565b60008135905061248881612462565b92915050565b6000602082840312156124a4576124a36122d8565b5b60006124b284828501612479565b91505092915050565b600073ffffffffffffffffffffffffffffffffffffffff82169050919050565b60006124e6826124bb565b9050919050565b6124f6816124db565b82525050565b600060208201905061251160008301846124ed565b92915050565b612520816124db565b811461252b57600080fd5b50565b60008135905061253d81612517565b92915050565b6000806040838503121561255a576125596122d8565b5b60006125688582860161252e565b925050602061257985828601612479565b9150509250929050565b60008060006060848603121561259c5761259b6122d8565b5b60006125aa8682870161252e565b93505060206125bb8682870161252e565b92505060406125cc86828701612479565b9150509250925092565b6000602082840312156125ec576125eb6122d8565b5b60006125fa8482850161252e565b91505092915050565b61260c81612458565b82525050565b60006020820190506126276000830184612603565b92915050565b61263681612367565b811461264157600080fd5b50565b6000813590506126538161262d565b92915050565b600080604083850312156126705761266f6122d8565b5b600061267e8582860161252e565b925050602061268f85828601612644565b9150509250929050565b600080fd5b600080fd5b7f4e487b7100000000000000000000000000000000000000000000000000000000600052604160045260246000fd5b6126db826123ec565b810181811067ffffffffffffffff821117156126fa576126f96126a3565b5b80604052505050565b600061270d6122ce565b905061271982826126d2565b919050565b600067ffffffffffffffff821115612739576127386126a3565b5b612742826123ec565b9050602081019050919050565b82818337600083830152505050565b600061277161276c8461271e565b612703565b90508281526020810184848401111561278d5761278c61269e565b5b61279884828561274f565b509392505050565b600082601f8301126127b5576127b4612699565b5b81356127c584826020860161275e565b91505092915050565b600080600080608085870312156127e8576127e76122d8565b5b60006127f68782880161252e565b94505060206128078782880161252e565b935050604061281887828801612479565b925050606085013567ffffffffffffffff811115612839576128386122dd565b5b612845878288016127a0565b91505092959194509250565b60008060408385031215612868576128676122d8565b5b60006128768582860161252e565b92505060206128878582860161252e565b9150509250929050565b7f4e487b7100000000000000000000000000000000000000000000000000000000600052602260045260246000fd5b600060028204905060018216806128d857607f821691505b602082108114156128ec576128eb612891565b5b50919050565b7f4552433732313a20617070726f76616c20746f2063757272656e74206f776e6560008201527f7200000000000000000000000000000000000000000000000000000000000000602082015250565b600061294e6021836123a8565b9150612959826128f2565b604082019050919050565b6000602082019050818103600083015261297d81612941565b9050919050565b7f4552433732313a20617070726f76652063616c6c6572206973206e6f7420746f60008201527f6b656e206f776e6572206e6f7220617070726f76656420666f7220616c6c0000602082015250565b60006129e0603e836123a8565b91506129eb82612984565b604082019050919050565b60006020820190508181036000830152612a0f816129d3565b9050919050565b7f4552433732313a2063616c6c6572206973206e6f7420746f6b656e206f776e6560008201527f72206e6f7220617070726f766564000000000000000000000000000000000000602082015250565b6000612a72602e836123a8565b9150612a7d82612a16565b604082019050919050565b60006020820190508181036000830152612aa181612a65565b9050919050565b600081905092915050565b7f46495253545f574f524400000000000000000000000000000000000000000000600082015250565b6000612ae9600a83612aa8565b9150612af482612ab3565b600a82019050919050565b6000612b0a8261239d565b612b148185612aa8565b9350612b248185602086016123b9565b80840191505092915050565b6000612b3b82612adc565b9150612b478284612aff565b915081905092915050565b7f4e487b7100000000000000000000000000000000000000000000000000000000600052601260045260246000fd5b6000612b8c82612458565b9150612b9783612458565b925082612ba757612ba6612b52565b5b828206905092915050565b7f4e487b7100000000000000000000000000000000000000000000000000000000600052603260045260246000fd5b7f4552433732313a20696e76616c696420746f6b656e2049440000000000000000600082015250565b6000612c176018836123a8565b9150612c2282612be1565b602082019050919050565b60006020820190508181036000830152612c4681612c0a565b9050919050565b7f4552433732313a2061646472657373207a65726f206973206e6f74206120766160008201527f6c6964206f776e65720000000000000000000000000000000000000000000000602082015250565b6000612ca96029836123a8565b9150612cb482612c4d565b604082019050919050565b60006020820190508181036000830152612cd881612c9c565b9050919050565b7f5345434f4e445f574f5244000000000000000000000000000000000000000000600082015250565b6000612d15600b83612aa8565b9150612d2082612cdf565b600b82019050919050565b6000612d3682612d08565b9150612d428284612aff565b915081905092915050565b7f54484952445f574f524400000000000000000000000000000000000000000000600082015250565b6000612d83600a83612aa8565b9150612d8e82612d4d565b600a82019050919050565b6000612da482612d76565b9150612db08284612aff565b915081905092915050565b6000612dc78285612aff565b9150612dd38284612aff565b91508190509392505050565b6000612deb8286612aff565b9150612df78285612aff565b9150612e038284612aff565b9150819050949350505050565b60008190508160005260206000209050919050565b60008154612e32816128c0565b612e3c8186612aa8565b94506001821660008114612e575760018114612e6857612e9b565b60ff19831686528186019350612e9b565b612e7185612e10565b60005b83811015612e9357815481890152600182019150602081019050612e74565b838801955050505b50505092915050565b7f3c2f746578743e3c2f7376673e00000000000000000000000000000000000000600082015250565b6000612eda600d83612aa8565b9150612ee582612ea4565b600d82019050919050565b6000612efc8287612e25565b9150612f088286612aff565b9150612f148285612aff565b9150612f208284612aff565b9150612f2b82612ecd565b915081905095945050505050565b7f7b226e616d65223a202200000000000000000000000000000000000000000000600082015250565b6000612f6f600a83612aa8565b9150612f7a82612f39565b600a82019050919050565b7f222c20226465736372697074696f6e223a20224120686967686c79206163636c60008201527f61696d656420636f6c6c656374696f6e206f6620737175617265732e222c202260208201527f696d616765223a2022646174613a696d6167652f7376672b786d6c3b6261736560408201527f36342c0000000000000000000000000000000000000000000000000000000000606082015250565b600061302d606383612aa8565b915061303882612f85565b606382019050919050565b7f227d000000000000000000000000000000000000000000000000000000000000600082015250565b6000613079600283612aa8565b915061308482613043565b600282019050919050565b600061309a82612f62565b91506130a68285612aff565b91506130b182613020565b91506130bd8284612aff565b91506130c88261306c565b91508190509392505050565b7f646174613a6170706c69636174696f6e2f6a736f6e3b6261736536342c000000600082015250565b600061310a601d83612aa8565b9150613115826130d4565b601d82019050919050565b600061312b826130fd565b91506131378284612aff565b915081905092915050565b600060408201905061315760008301856124ed565b6131646020830184612603565b9392505050565b7f4552433732313a207472616e736665722066726f6d20696e636f72726563742060008201527f6f776e6572000000000000000000000000000000000000000000000000000000602082015250565b60006131c76025836123a8565b91506131d28261316b565b604082019050919050565b600060208201905081810360008301526131f6816131ba565b9050919050565b7f4552433732313a207472616e7366657220746f20746865207a65726f2061646460008201527f7265737300000000000000000000000000000000000000000000000000000000602082015250565b60006132596024836123a8565b9150613264826131fd565b604082019050919050565b600060208201905081810360008301526132888161324c565b9050919050565b7f4e487b7100000000000000000000000000000000000000000000000000000000600052601160045260246000fd5b60006132c982612458565b91506132d483612458565b9250828210156132e7576132e661328f565b5b828203905092915050565b60006132fd82612458565b915061330883612458565b9250827fffffffffffffffffffffffffffffffffffffffffffffffffffffffffffffffff0382111561333d5761333c61328f565b5b828201905092915050565b600061335382612458565b91507fffffffffffffffffffffffffffffffffffffffffffffffffffffffffffffffff8214156133865761338561328f565b5b600182019050919050565b600061339c82612458565b91506133a783612458565b9250826133b7576133b6612b52565b5b828204905092915050565b60006133ce8284612aff565b915081905092915050565b600060408201905081810360008301526133f381856123fd565b90506134026020830184612603565b9392505050565b7f4552433732313a20617070726f766520746f2063616c6c657200000000000000600082015250565b600061343f6019836123a8565b915061344a82613409565b602082019050919050565b6000602082019050818103600083015261346e81613432565b9050919050565b7f4552433732313a207472616e7366657220746f206e6f6e20455243373231526560008201527f63656976657220696d706c656d656e7465720000000000000000000000000000602082015250565b60006134d16032836123a8565b91506134dc82613475565b604082019050919050565b60006020820190508181036000830152613500816134c4565b9050919050565b600061351282612458565b915061351d83612458565b9250817fffffffffffffffffffffffffffffffffffffffffffffffffffffffffffffffff04831182151516156135565761355561328f565b5b828202905092915050565b7f45524337323155524953746f726167653a2055524920736574206f66206e6f6e60008201527f6578697374656e7420746f6b656e000000000000000000000000000000000000602082015250565b60006135bd602e836123a8565b91506135c882613561565b604082019050919050565b600060208201905081810360008301526135ec816135b0565b9050919050565b6000606082019050818103600083015261360d81866123fd565b905061361c6020830185612603565b61362960408301846124ed565b949350505050565b600081519050919050565b600082825260208201905092915050565b600061365882613631565b613662818561363c565b93506136728185602086016123b9565b61367b816123ec565b840191505092915050565b600060808201905061369b60008301876124ed565b6136a860208301866124ed565b6136b56040830185612603565b81810360608301526136c7818461364d565b905095945050505050565b6000815190506136e18161230e565b92915050565b6000602082840312156136fd576136fc6122d8565b5b600061370b848285016136d2565b91505092915050565b7f4552433732313a206d696e7420746f20746865207a65726f2061646472657373600082015250565b600061374a6020836123a8565b915061375582613714565b602082019050919050565b600060208201905081810360008301526137798161373d565b9050919050565b7f4552433732313a20746f6b656e20616c7265616479206d696e74656400000000600082015250565b60006137b6601c836123a8565b91506137c182613780565b602082019050919050565b600060208201905081810360008301526137e5816137a9565b905091905056fe416e204e465420772f20494420257320686173206265656e206d696e74656420746f2025734142434445464748494a4b4c4d4e4f505152535455565758595a6162636465666768696a6b6c6d6e6f707172737475767778797a303132333435363738392b2fa2646970667358221220d2133c1121e3adba4d1857ea5cb3d2dc17704ac77a8c16c61ca6f9c21fa347e764736f6c634300080900333c73766720786d6c6e733d27687474703a2f2f7777772e77332e6f72672f323030302f73766727207072657365727665417370656374526174696f3d27784d696e594d696e206d656574272076696577426f783d273020302033353020333530273e3c7374796c653e2e62617365207b2066696c6c3a2077686974653b20666f6e742d66616d696c793a2073657269663b20666f6e742d73697a653a20323470783b207d3c2f7374796c653e3c726563742077696474683d273130302527206865696768743d2731303025272066696c6c3d27626c61636b27202f3e3c7465787420783d273530252720793d273530252720636c6173733d27626173652720646f6d696e616e742d626173656c696e653d276d6964646c652720746578742d616e63686f723d276d6964646c65273e",
  "linkReferences": {},
  "deployedLinkReferences": {}
}